{"abi":[{"type":"constructor","inputs":[{"name":"_endpoint","type":"address","internalType":"address"},{"name":"_owner","type":"address","internalType":"address"}],"stateMutability":"nonpayable"},{"type":"function","name":"allowInitializePath","inputs":[{"name":"origin","type":"tuple","internalType":"struct Origin","components":[{"name":"srcEid","type":"uint32","internalType":"uint32"},{"name":"sender","type":"bytes32","internalType":"bytes32"},{"name":"nonce","type":"uint64","internalType":"uint64"}]}],"outputs":[{"name":"","type":"bool","internalType":"bool"}],"stateMutability":"view"},{"type":"function","name":"composeMsgSender","inputs":[],"outputs":[{"name":"sender","type":"address","internalType":"address"}],"stateMutability":"view"},{"type":"function","name":"createPayload","inputs":[{"name":"_token","type":"address","internalType":"address"},{"name":"_from","type":"address","internalType":"address"},{"name":"_to","type":"address","internalType":"address"},{"name":"amount","type":"uint256","internalType":"uint256"}],"outputs":[{"name":"","type":"bytes","internalType":"bytes"}],"stateMutability":"view"},{"type":"function","name":"depositFor","inputs":[{"name":"_orderId","type":"uint256","internalType":"uint256"},{"name":"_payReceiver","type":"address","internalType":"address"},{"name":"_amount","type":"uint256","internalType":"uint256"},{"name":"_lzOptions","type":"bytes","internalType":"bytes"}],"outputs":[],"stateMutability":"nonpayable"},{"type":"function","name":"endpoint","inputs":[],"outputs":[{"name":"","type":"address","internalType":"contract ILayerZeroEndpointV2"}],"stateMutability":"view"},{"type":"function","name":"lockAndInitiateOrder","inputs":[{"name":"order","type":"tuple","internalType":"struct Order","components":[{"name":"receiver","type":"address","internalType":"address"},{"name":"tokenIn","type":"address","internalType":"address"},{"name":"tokenOut","type":"address","internalType":"address"},{"name":"chainIn","type":"uint32","internalType":"uint32"},{"name":"chainOut","type":"uint32","internalType":"uint32"},{"name":"amountIn","type":"uint256","internalType":"uint256"},{"name":"minAmountOut","type":"uint256","internalType":"uint256"},{"name":"deadline","type":"uint64","internalType":"uint64"}]}],"outputs":[],"stateMutability":"nonpayable"},{"type":"function","name":"lzReceive","inputs":[{"name":"_origin","type":"tuple","internalType":"struct Origin","components":[{"name":"srcEid","type":"uint32","internalType":"uint32"},{"name":"sender","type":"bytes32","internalType":"bytes32"},{"name":"nonce","type":"uint64","internalType":"uint64"}]},{"name":"_guid","type":"bytes32","internalType":"bytes32"},{"name":"_message","type":"bytes","internalType":"bytes"},{"name":"_executor","type":"address","internalType":"address"},{"name":"_extraData","type":"bytes","internalType":"bytes"}],"outputs":[],"stateMutability":"payable"},{"type":"function","name":"nextNonce","inputs":[{"name":"","type":"uint32","internalType":"uint32"},{"name":"","type":"bytes32","internalType":"bytes32"}],"outputs":[{"name":"nonce","type":"uint64","internalType":"uint64"}],"stateMutability":"view"},{"type":"function","name":"nextOrderId","inputs":[],"outputs":[{"name":"","type":"uint256","internalType":"uint256"}],"stateMutability":"view"},{"type":"function","name":"oAppVersion","inputs":[],"outputs":[{"name":"senderVersion","type":"uint64","internalType":"uint64"},{"name":"receiverVersion","type":"uint64","internalType":"uint64"}],"stateMutability":"pure"},{"type":"function","name":"orders","inputs":[{"name":"","type":"uint256","internalType":"uint256"}],"outputs":[{"name":"receiver","type":"address","internalType":"address"},{"name":"tokenIn","type":"address","internalType":"address"},{"name":"tokenOut","type":"address","internalType":"address"},{"name":"chainIn","type":"uint32","internalType":"uint32"},{"name":"chainOut","type":"uint32","internalType":"uint32"},{"name":"amountIn","type":"uint256","internalType":"uint256"},{"name":"minAmountOut","type":"uint256","internalType":"uint256"},{"name":"deadline","type":"uint64","internalType":"uint64"}],"stateMutability":"view"},{"type":"function","name":"owner","inputs":[],"outputs":[{"name":"","type":"address","internalType":"address"}],"stateMutability":"view"},{"type":"function","name":"peers","inputs":[{"name":"eid","type":"uint32","internalType":"uint32"}],"outputs":[{"name":"peer","type":"bytes32","internalType":"bytes32"}],"stateMutability":"view"},{"type":"function","name":"renounceOwnership","inputs":[],"outputs":[],"stateMutability":"nonpayable"},{"type":"function","name":"setDelegate","inputs":[{"name":"_delegate","type":"address","internalType":"address"}],"outputs":[],"stateMutability":"nonpayable"},{"type":"function","name":"setPeer","inputs":[{"name":"_eid","type":"uint32","internalType":"uint32"},{"name":"_peer","type":"bytes32","internalType":"bytes32"}],"outputs":[],"stateMutability":"nonpayable"},{"type":"function","name":"transferOwnership","inputs":[{"name":"newOwner","type":"address","internalType":"address"}],"outputs":[],"stateMutability":"nonpayable"},{"type":"function","name":"withdrawOrder","inputs":[{"name":"orderIndex","type":"uint256","internalType":"uint256"}],"outputs":[],"stateMutability":"nonpayable"},{"type":"event","name":"OwnershipTransferred","inputs":[{"name":"previousOwner","type":"address","indexed":true,"internalType":"address"},{"name":"newOwner","type":"address","indexed":true,"internalType":"address"}],"anonymous":false},{"type":"event","name":"PeerSet","inputs":[{"name":"eid","type":"uint32","indexed":false,"internalType":"uint32"},{"name":"peer","type":"bytes32","indexed":false,"internalType":"bytes32"}],"anonymous":false},{"type":"error","name":"AddressEmptyCode","inputs":[{"name":"target","type":"address","internalType":"address"}]},{"type":"error","name":"AddressInsufficientBalance","inputs":[{"name":"account","type":"address","internalType":"address"}]},{"type":"error","name":"FailedInnerCall","inputs":[]},{"type":"error","name":"InvalidDelegate","inputs":[]},{"type":"error","name":"InvalidEndpointCall","inputs":[]},{"type":"error","name":"LzTokenUnavailable","inputs":[]},{"type":"error","name":"NoPeer","inputs":[{"name":"eid","type":"uint32","internalType":"uint32"}]},{"type":"error","name":"NotEnoughNative","inputs":[{"name":"msgValue","type":"uint256","internalType":"uint256"}]},{"type":"error","name":"OnlyEndpoint","inputs":[{"name":"addr","type":"address","internalType":"address"}]},{"type":"error","name":"OnlyPeer","inputs":[{"name":"eid","type":"uint32","internalType":"uint32"},{"name":"sender","type":"bytes32","internalType":"bytes32"}]},{"type":"error","name":"OwnableInvalidOwner","inputs":[{"name":"owner","type":"address","internalType":"address"}]},{"type":"error","name":"OwnableUnauthorizedAccount","inputs":[{"name":"account","type":"address","internalType":"address"}]},{"type":"error","name":"SafeERC20FailedOperation","inputs":[{"name":"token","type":"address","internalType":"address"}]}],"bytecode":{"object":"0x60a03462000173576200160a906001600160401b03601f38849003908101601f1916830190828211848310176200017857808491604096879485528339810103126200017357602062000052836200018e565b926001600160a01b039182916200006a91016200018e565b169081156200015b57600080546001600160a01b0319811684178255909490839083167f8be0079c531659141344cd1fd0a4f28419497f9722a3daafe3b4186f6b6457e08780a3169081608052813b156200015757839291602484928751968793849263ca5eb5e160e01b845260048401525af180156200014d5762000126575b83516114669081620001a482396080518181816103ba015281816104ed0152818161055701528181610b7301528181610de50152610f2e0152f35b82116200013957508152388080620000eb565b634e487b7160e01b81526041600452602490fd5b84513d84823e3d90fd5b8380fd5b8451631e4fbdf760e01b815260006004820152602490fd5b600080fd5b634e487b7160e01b600052604160045260246000fd5b51906001600160a01b0382168203620001735756fe608080604052600436101561001357600080fd5b600090813560e01c90816313137d6514610ec35750806317442b7014610ea15780632a58b33014610e835780633400288b14610e145780635e280f1114610dcf578063715018a614610d755780637d25a05e14610d4f5780638da5cb5b14610d28578063a85c38ef14610c95578063b92d0eff14610c7a578063bb0b6a5314610c45578063bb81dee714610bf3578063ca5eb5e114610b47578063ccac443214610970578063f2fde38b146108e0578063fb791b0b1461076e578063ff671485146101225763ff7bd03d146100e757600080fd5b3461011f57606036600319011261011f57604060209163ffffffff61010a6112c7565b16815260018352205460405190602435148152f35b80fd5b503461011f57608036600319011261011f5761013c6111d5565b6064356001600160401b0381116104a75761015b903690600401611192565b906004358452600260205260408420926040519361017885611254565b80546001600160a01b0390811686526001820154811660208701526002820154908116604087015260a081811c63ffffffff908116606089015260c092831c16608088015260038301549087015260048201549086019081526005909101546001600160401b031660e086018190524210156107395751604435106106f457604084810151855191516323b872dd60e01b81523360048201526001600160a01b03928316602482015260448035908201529291602091849160649183918b91165af19182156106e957610276926106ba575b506020850151855160809096015163ffffffff169560443592916001600160a01b0391821691166112da565b92846040519261028584611270565b60008452816020850152610298856113b2565b946102a660405196876112a6565b80865236818301116104a7578060209283880137850101526040516102ca8161128b565b85815285602082015260408051916102e183611270565b8783528760208401520152815190816106a1576020830151806104d7575b50602061030b8261133a565b93015115156040519060a082018281106001600160401b038211176104c15760809663ffffffff946103a7926040528452602084019687526040840198895260608401908152878401928352610394604051998a98899788976302637a4560e41b8952604060048a0152511660448801525160648701525160a0608487015260e4860190611214565b90518482036043190160a4860152611214565b9051151560c483015233602483015203917f00000000000000000000000000000000000000000000000000000000000000006001600160a01b03165af180156104b657610428575b50600435815260026020526104256040822060056000918281558260018201558260028201558260038201558260048201550155565b80f35b8060803d6080116104af575b61043e81836112a6565b810103608081126104a757604051906104568261128b565b825182526020830151906001600160401b03821682036104ab576040916020840152603f1901126104a757604090606082519361049285611270565b838101518552015160208401520152386103ef565b8280fd5b8480fd5b503d610434565b6040513d84823e3d90fd5b634e487b7160e01b600052604160045260246000fd5b60405163393f876560e21b8152906020826004817f00000000000000000000000000000000000000000000000000000000000000006001600160a01b03165afa91821561069657889261064e575b506001600160a01b0382161561063c576040516323b872dd60e01b602082019081523360248301526001600160a01b037f00000000000000000000000000000000000000000000000000000000000000001660448301526064808301939093529181526105e391899182919061059c6084826112a6565b5190826001600160a01b0387165af13d15610634573d906105bc826113b2565b916105ca60405193846112a6565b82523d8a602084013e5b6001600160a01b0384166113cd565b8051908115159182610619575b5050156102ff57604051635274afe760e01b81526001600160a01b039091166004820152602490fd5b61062c9250602080918301019101611322565b1538806105f0565b6060906105d4565b6040516329b99a9560e11b8152600490fd5b9091506020813d60201161068e575b8161066a602093836112a6565b8101031261068a57516001600160a01b038116810361068a579038610525565b8780fd5b3d915061065d565b6040513d8a823e3d90fd5b6040516304fb820960e51b815260006004820152602490fd5b6106db9060203d6020116106e2575b6106d381836112a6565b810190611322565b503861024a565b503d6106c9565b6040513d88823e3d90fd5b60405162461bcd60e51b815260206004820152601a60248201527f416d6f756e74206c657373207468616e206d696e416d6f756e740000000000006044820152606490fd5b60405162461bcd60e51b815260206004820152600d60248201526c13dc99195c88195e1c1a5c9959609a1b6044820152606490fd5b503461011f576020908160031936011261011f576004359182825260028152604082209260405161079e81611254565b60018060a01b039081865416815260e082600188015416918581019283526002880154848116604083015263ffffffff90818160a01c16606084015260c01c1660808201526001600160401b03600560038a01549960a084019a8b52600481015460c085015201541691829101524211156108a75751945160405163a9059cbb60e01b8152336004820152602481019190915293948391859160449183918991165af192831561089c5760029361087f575b508352526104256040822060056000918281558260018201558260028201558260038201558260048201550155565b61089590833d85116106e2576106d381836112a6565b5038610850565b6040513d86823e3d90fd5b60405162461bcd60e51b815260048101859052601160248201527013dc99195c881b9bdd08195e1c1a5c9959607a1b6044820152606490fd5b503461011f57602036600319011261011f576108fa6111bf565b610902611386565b6001600160a01b0390811690811561095757600054826bffffffffffffffffffffffff60a01b821617600055167f8be0079c531659141344cd1fd0a4f28419497f9722a3daafe3b4186f6b6457e0600080a380f35b604051631e4fbdf760e01b815260048101849052602490fd5b503461011f5761010036600319011261011f5760405161098f81611254565b6109976111bf565b81526109a16111d5565b60208201918183526109b16111eb565b604082019081529063ffffffff6064358181168103610b4257606083019081526084359182168203610b42576080830191825260a4359360a084019185835260c085019360c43585528960e435996001600160401b03998a8c168c036104a75760e089019b8c526040516323b872dd60e01b8152336004820152306024820152604481019a909a526001600160a01b03926020918b9160649183919087165af1988915610b3757600599610b18575b506003548c5260026020528160408d209851166bffffffffffffffffffffffff60a01b90818a54161789558260018a01925116908254161790556002870193511683549263ffffffff60a01b905160a01b169163ffffffff60c01b905160c01b169263ffffffff60e01b161717179055516003830155516004820155019151166001600160401b03198254161790556003546000198114610b045760010160035580f35b634e487b7160e01b82526011600452602482fd5b610b309060203d6020116106e2576106d381836112a6565b5038610a60565b6040513d8e823e3d90fd5b600080fd5b503461011f57602036600319011261011f57610b616111bf565b610b69611386565b6001600160a01b037f0000000000000000000000000000000000000000000000000000000000000000811691839190833b156104a75760249083604051958694859363ca5eb5e160e01b85521660048401525af180156104b657610bcb575080f35b6001600160401b038111610bdf5760405280f35b634e487b7160e01b82526041600452602482fd5b503461011f57608036600319011261011f57610c41610c2d610c136111bf565b610c1b6111d5565b610c236111eb565b90606435926112da565b604051918291602083526020830190611214565b0390f35b503461011f57602036600319011261011f57604060209163ffffffff610c69611201565b168152600183522054604051908152f35b503461011f578060031936011261011f576020604051308152f35b503461011f57602036600319011261011f57604061010091600435815260026020522060018060a01b0380825416918160018201541691600282015463ffffffff906003840154926001600160401b03600560048701549601541695604051978852602088015281166040870152818160a01c16606087015260c01c16608085015260a084015260c083015260e0820152f35b503461011f578060031936011261011f57546040516001600160a01b039091168152602090f35b503461011f57604036600319011261011f57602090610d6c611201565b50604051908152f35b503461011f578060031936011261011f57610d8e611386565b80546001600160a01b03198116825581906001600160a01b03167f8be0079c531659141344cd1fd0a4f28419497f9722a3daafe3b4186f6b6457e08280a380f35b503461011f578060031936011261011f576040517f00000000000000000000000000000000000000000000000000000000000000006001600160a01b03168152602090f35b503461011f57604036600319011261011f577f238399d427b947898edb290f5ff0f9109849b1c3ba196a42e35f00c50a54b98b610e4f611201565b60243590610e5b611386565b63ffffffff16808452600160209081526040808620849055805192835290820192909252a180f35b503461011f578060031936011261011f576020600354604051908152f35b503461011f578060031936011261011f57604080516001815260016020820152f35b9050366003190160e081126104a75760601361118e576001600160401b0360843581811161118a57610ef9903690600401611192565b6001600160a01b039391929160a435858116036111865760c43583811161118257610f28903690600401611192565b505033857f0000000000000000000000000000000000000000000000000000000000000000160361116d5750610f64610f5f6112c7565b61133a565b60243580910361113d57509060a083809387950103126104a757813593610f8d60408401611372565b90610f9a60608501611372565b93610fa760808201611372565b94878752600260205282604088209160405193610fc385611254565b82845416938486528360018201541697886020880152600282015491858316604089015263ffffffff8360a01c16606089015260e063ffffffff8460c01c169889608082015260038301549c8d60a083015260056004850154948560c0850152015416918291015242109763ffffffff61103b6112c7565b1614938861112f575b505086611120575b505084611118575b508361110c575b505050611066578480f35b60405163a9059cbb60e01b815293166001600160a01b031660048401526024830191909152909160209183916044918391905af18015611101576110e2575b50815260026020526110d86040822060056000918281558260018201558260028201558260038201558260048201550155565b3881818080808480f35b6110fa9060203d6020116106e2576106d381836112a6565b50386110a5565b6040513d85823e3d90fd5b1614905038828161105b565b935038611054565b8416908416149450388061104c565b602001351496503880611044565b6111456112c7565b60405163309afaf360e21b815263ffffffff9190911660048201526024810191909152604490fd5b6391ac5e4f60e01b8152336004820152602490fd5b8680fd5b8580fd5b8380fd5b5080fd5b9181601f84011215610b42578235916001600160401b038311610b425760208381860195010111610b4257565b600435906001600160a01b0382168203610b4257565b602435906001600160a01b0382168203610b4257565b604435906001600160a01b0382168203610b4257565b6004359063ffffffff82168203610b4257565b919082519283825260005b848110611240575050826000602080949584010152601f8019910116010190565b60208183018101518483018201520161121f565b61010081019081106001600160401b038211176104c157604052565b604081019081106001600160401b038211176104c157604052565b606081019081106001600160401b038211176104c157604052565b90601f801991011681019081106001600160401b038211176104c157604052565b60043563ffffffff81168103610b425790565b92916040519360018060a01b039283809216602087015216604085015216606083015260808201526080815260a081018181106001600160401b038211176104c15760405290565b90816020910312610b4257518015158103610b425790565b63ffffffff1680600052600160205260406000205490811561135a575090565b6024906040519063f6ff4fb760e01b82526004820152fd5b35906001600160a01b0382168203610b4257565b6000546001600160a01b0316330361139a57565b60405163118cdaa760e01b8152336004820152602490fd5b6001600160401b0381116104c157601f01601f191660200190565b906113f457508051156113e257805190602001fd5b604051630a12f52160e11b8152600490fd5b81511580611427575b611405575090565b604051639996b31560e01b81526001600160a01b039091166004820152602490fd5b50803b156113fd56fea264697066735822122034d129ca825443ccbea6e977fb99485ca96ec71920b62279c2e3b47f5245a44864736f6c63430008160033","linkReferences":{}},"methodIdentifiers":{"allowInitializePath((uint32,bytes32,uint64))":"ff7bd03d","composeMsgSender()":"b92d0eff","createPayload(address,address,address,uint256)":"bb81dee7","depositFor(uint256,address,uint256,bytes)":"ff671485","endpoint()":"5e280f11","lockAndInitiateOrder((address,address,address,uint32,uint32,uint256,uint256,uint64))":"ccac4432","lzReceive((uint32,bytes32,uint64),bytes32,bytes,address,bytes)":"13137d65","nextNonce(uint32,bytes32)":"7d25a05e","nextOrderId()":"2a58b330","oAppVersion()":"17442b70","orders(uint256)":"a85c38ef","owner()":"8da5cb5b","peers(uint32)":"bb0b6a53","renounceOwnership()":"715018a6","setDelegate(address)":"ca5eb5e1","setPeer(uint32,bytes32)":"3400288b","transferOwnership(address)":"f2fde38b","withdrawOrder(uint256)":"fb791b0b"},"id":42}