{"abi":[{"type":"constructor","inputs":[{"name":"_endpoint","type":"address","internalType":"address"},{"name":"_owner","type":"address","internalType":"address"},{"name":"_destId","type":"uint16","internalType":"uint16"}],"stateMutability":"nonpayable"},{"type":"function","name":"allowInitializePath","inputs":[{"name":"origin","type":"tuple","internalType":"struct Origin","components":[{"name":"srcEid","type":"uint32","internalType":"uint32"},{"name":"sender","type":"bytes32","internalType":"bytes32"},{"name":"nonce","type":"uint64","internalType":"uint64"}]}],"outputs":[{"name":"","type":"bool","internalType":"bool"}],"stateMutability":"view"},{"type":"function","name":"balanceOf","inputs":[{"name":"","type":"address","internalType":"address"},{"name":"","type":"address","internalType":"address"}],"outputs":[{"name":"","type":"uint256","internalType":"uint256"}],"stateMutability":"view"},{"type":"function","name":"composeMsgSender","inputs":[],"outputs":[{"name":"sender","type":"address","internalType":"address"}],"stateMutability":"view"},{"type":"function","name":"createPayload","inputs":[{"name":"_orderId","type":"uint256","internalType":"uint256"},{"name":"_minAmount","type":"uint256","internalType":"uint256"},{"name":"_token","type":"address","internalType":"address"},{"name":"_to","type":"address","internalType":"address"},{"name":"_payReceiver","type":"address","internalType":"address"}],"outputs":[{"name":"","type":"bytes","internalType":"bytes"}],"stateMutability":"view"},{"type":"function","name":"deposit","inputs":[{"name":"_token","type":"address","internalType":"address"},{"name":"_to","type":"address","internalType":"address"},{"name":"_amount","type":"uint256","internalType":"uint256"}],"outputs":[],"stateMutability":"nonpayable"},{"type":"function","name":"depositFor","inputs":[{"name":"_token","type":"address","internalType":"address"},{"name":"_to","type":"address","internalType":"address"},{"name":"_payReceiver","type":"address","internalType":"address"},{"name":"_amount","type":"uint256","internalType":"uint256"},{"name":"_minAmount","type":"uint256","internalType":"uint256"},{"name":"_orderId","type":"uint256","internalType":"uint256"},{"name":"_lzOptions","type":"bytes","internalType":"bytes"}],"outputs":[],"stateMutability":"nonpayable"},{"type":"function","name":"destId","inputs":[],"outputs":[{"name":"","type":"uint32","internalType":"uint32"}],"stateMutability":"view"},{"type":"function","name":"endpoint","inputs":[],"outputs":[{"name":"","type":"address","internalType":"contract ILayerZeroEndpointV2"}],"stateMutability":"view"},{"type":"function","name":"lzReceive","inputs":[{"name":"_origin","type":"tuple","internalType":"struct Origin","components":[{"name":"srcEid","type":"uint32","internalType":"uint32"},{"name":"sender","type":"bytes32","internalType":"bytes32"},{"name":"nonce","type":"uint64","internalType":"uint64"}]},{"name":"_guid","type":"bytes32","internalType":"bytes32"},{"name":"_message","type":"bytes","internalType":"bytes"},{"name":"_executor","type":"address","internalType":"address"},{"name":"_extraData","type":"bytes","internalType":"bytes"}],"outputs":[],"stateMutability":"payable"},{"type":"function","name":"nextNonce","inputs":[{"name":"","type":"uint32","internalType":"uint32"},{"name":"","type":"bytes32","internalType":"bytes32"}],"outputs":[{"name":"nonce","type":"uint64","internalType":"uint64"}],"stateMutability":"view"},{"type":"function","name":"oAppVersion","inputs":[],"outputs":[{"name":"senderVersion","type":"uint64","internalType":"uint64"},{"name":"receiverVersion","type":"uint64","internalType":"uint64"}],"stateMutability":"pure"},{"type":"function","name":"owner","inputs":[],"outputs":[{"name":"","type":"address","internalType":"address"}],"stateMutability":"view"},{"type":"function","name":"peers","inputs":[{"name":"eid","type":"uint32","internalType":"uint32"}],"outputs":[{"name":"peer","type":"bytes32","internalType":"bytes32"}],"stateMutability":"view"},{"type":"function","name":"processed","inputs":[{"name":"","type":"bytes32","internalType":"bytes32"}],"outputs":[{"name":"","type":"bool","internalType":"bool"}],"stateMutability":"view"},{"type":"function","name":"quote","inputs":[{"name":"_orderId","type":"uint256","internalType":"uint256"},{"name":"_minAmount","type":"uint256","internalType":"uint256"},{"name":"_token","type":"address","internalType":"address"},{"name":"_to","type":"address","internalType":"address"},{"name":"_payReceiver","type":"address","internalType":"address"},{"name":"_options","type":"bytes","internalType":"bytes"}],"outputs":[{"name":"nativeFee","type":"uint256","internalType":"uint256"}],"stateMutability":"view"},{"type":"function","name":"renounceOwnership","inputs":[],"outputs":[],"stateMutability":"nonpayable"},{"type":"function","name":"setDelegate","inputs":[{"name":"_delegate","type":"address","internalType":"address"}],"outputs":[],"stateMutability":"nonpayable"},{"type":"function","name":"setPeer","inputs":[{"name":"_eid","type":"uint32","internalType":"uint32"},{"name":"_peer","type":"bytes32","internalType":"bytes32"}],"outputs":[],"stateMutability":"nonpayable"},{"type":"function","name":"transferOwnership","inputs":[{"name":"newOwner","type":"address","internalType":"address"}],"outputs":[],"stateMutability":"nonpayable"},{"type":"event","name":"OwnershipTransferred","inputs":[{"name":"previousOwner","type":"address","indexed":true,"internalType":"address"},{"name":"newOwner","type":"address","indexed":true,"internalType":"address"}],"anonymous":false},{"type":"event","name":"PeerSet","inputs":[{"name":"eid","type":"uint32","indexed":false,"internalType":"uint32"},{"name":"peer","type":"bytes32","indexed":false,"internalType":"bytes32"}],"anonymous":false},{"type":"error","name":"AddressEmptyCode","inputs":[{"name":"target","type":"address","internalType":"address"}]},{"type":"error","name":"AddressInsufficientBalance","inputs":[{"name":"account","type":"address","internalType":"address"}]},{"type":"error","name":"FailedInnerCall","inputs":[]},{"type":"error","name":"InvalidDelegate","inputs":[]},{"type":"error","name":"InvalidEndpointCall","inputs":[]},{"type":"error","name":"LzTokenUnavailable","inputs":[]},{"type":"error","name":"NoPeer","inputs":[{"name":"eid","type":"uint32","internalType":"uint32"}]},{"type":"error","name":"NotEnoughNative","inputs":[{"name":"msgValue","type":"uint256","internalType":"uint256"}]},{"type":"error","name":"OnlyEndpoint","inputs":[{"name":"addr","type":"address","internalType":"address"}]},{"type":"error","name":"OnlyPeer","inputs":[{"name":"eid","type":"uint32","internalType":"uint32"},{"name":"sender","type":"bytes32","internalType":"bytes32"}]},{"type":"error","name":"OwnableInvalidOwner","inputs":[{"name":"owner","type":"address","internalType":"address"}]},{"type":"error","name":"OwnableUnauthorizedAccount","inputs":[{"name":"account","type":"address","internalType":"address"}]},{"type":"error","name":"SafeERC20FailedOperation","inputs":[{"name":"token","type":"address","internalType":"address"}]}],"bytecode":{"object":"0x60c034620001a257601f6200147938819003918201601f1916830192916001600160401b039182851184861017620001a7578160609285926040978852833981010312620001a2576200005282620001bd565b90836200006260208501620001bd565b9301519261ffff8416809403620001a2576001600160a01b039081169081156200018a57600080546001600160a01b0319811684178255909490839083167f8be0079c531659141344cd1fd0a4f28419497f9722a3daafe3b4186f6b6457e08780a3169081608052813b156200018657839291602484928851968793849263ca5eb5e160e01b845260048401525af180156200017c5762000155575b50505060a052516112a69081620001d3823960805181818161044c0152818161050e015281816107ae01528181610a2301528181610b460152610d5b015260a05181818161036701528181610abb0152610be50152f35b82116200016857508252388080620000fe565b634e487b7160e01b81526041600452602490fd5b85513d84823e3d90fd5b8380fd5b8551631e4fbdf760e01b815260006004820152602490fd5b600080fd5b634e487b7160e01b600052604160045260246000fd5b51906001600160a01b0382168203620001a25756fe608080604052600436101561001357600080fd5b600090813560e01c90816313137d6514610cee5750806317442b7014610ccc5780632f43f97c14610c785780633400288b14610c095780633cc50f2214610bc857806345cd443214610a525780635e280f1114610a0d578063715018a6146109b35780637d25a05e1461098d5780638340f549146108d45780638da5cb5b146108ad578063b92d0eff14610892578063bb0b6a531461085d578063c1f0808a1461082e578063ca5eb5e114610782578063d570f5d41461020c578063f2fde38b1461017c578063f7888aec1461012d5763ff7bd03d146100f257600080fd5b3461012a57606036600319011261012a57604060209163ffffffff610115610f9f565b16815260018352205460405190602435148152f35b80fd5b503461012a57604036600319011261012a57610147610f20565b6040610151610f36565b9260018060a01b03809316815260026020522091166000526020526020604060002054604051908152f35b503461012a57602036600319011261012a57610196610f20565b61019e61114b565b6001600160a01b039081169081156101f357600054826bffffffffffffffffffffffff60a01b821617600055167f8be0079c531659141344cd1fd0a4f28419497f9722a3daafe3b4186f6b6457e0600080a380f35b604051631e4fbdf760e01b815260048101849052602490fd5b503461012a5760e036600319011261012a57610226610f20565b61022e610f36565b90610237610ede565b9060c4356001600160401b0381116104e557610257903690600401610eac565b9290936084356064351061073d5760405160a4356020820152608435604082015260018060a01b0384166060820152606081528060808101106001600160401b03608083011117610727576080810160405260208151910120808752600360205260ff6040882054166106e2578652600360209081526040808820805460ff19166001179055516323b872dd60e01b8152336004820152306024820152606480356044830152909491908590818a6001600160a01b0386165af19384156106d757610364946106a8575b5060018060a01b038116875260026020526040872060018060a01b038316600052602052604060002061035760643582546110dc565b905560843560a435611024565b907f0000000000000000000000000000000000000000000000000000000000000000926103aa6040519161039783610fcd565b600083526020830193878552369161108d565b906040516103b781610fe8565b86815286602082015260408051916103ce83610fcd565b6000835260006020840152015251928361068f578251806104ff575b50916080939185936103fe610448976110ff565b925115159263ffffffff6040519661041588610fb2565b1686526020860152604085015260608401528383015260405180809581946302637a4560e41b835233906004840161119f565b03917f00000000000000000000000000000000000000000000000000000000000000006001600160a01b03165af180156104f457610484575080f35b60803d6080116104ed575b6104998183611003565b81016080828203126104e957604051916104b283610fe8565b805183526020810151916001600160401b03831683036104e55760406104df928194602087015201611177565b91015280f35b8480fd5b8280fd5b503d61048f565b6040513d84823e3d90fd5b60405163393f876560e21b81527f00000000000000000000000000000000000000000000000000000000000000006001600160a01b03169190602081600481865afa90811561068457899161063e575b506001600160a01b031691821561062c576040516323b872dd60e01b602082019081523360248301526001600160a01b039290921660448201526064808201939093529182526105dd91899182916105a8608482611003565b519082865af13d15610624573d906105bf82611072565b916105cd6040519384611003565b82523d8a602084013e5b8361120d565b8051908115159182610609575b5050156103ea5760249060405190635274afe760e01b82526004820152fd5b61061c92506020809183010191016110c4565b1538806105ea565b6060906105d7565b6040516329b99a9560e11b8152600490fd5b90506020813d60201161067c575b8161065960209383611003565b8101031261067857516001600160a01b0381168103610678573861054f565b8880fd5b3d915061064c565b6040513d8b823e3d90fd5b6040516304fb820960e51b815260006004820152602490fd5b6106c99060203d6020116106d0575b6106c18183611003565b8101906110c4565b5038610321565b503d6106b7565b6040513d89823e3d90fd5b60405162461bcd60e51b815260206004820152601760248201527f4f7264657220616c72656164792070726f6365737365640000000000000000006044820152606490fd5b634e487b7160e01b600052604160045260246000fd5b60405162461bcd60e51b815260206004820152601a60248201527f416d6f756e74206c657373207468616e206d696e416d6f756e740000000000006044820152606490fd5b503461012a57602036600319011261012a5761079c610f20565b6107a461114b565b6001600160a01b037f0000000000000000000000000000000000000000000000000000000000000000811691839190833b156104e95760249083604051958694859363ca5eb5e160e01b85521660048401525af180156104f457610806575080f35b6001600160401b03811161081a5760405280f35b634e487b7160e01b82526041600452602482fd5b503461012a57602036600319011261012a5760ff60406020926004358152600384522054166040519015158152f35b503461012a57602036600319011261012a57604060209163ffffffff610881610f8c565b168152600183522054604051908152f35b503461012a578060031936011261012a576020604051308152f35b503461012a578060031936011261012a57546040516001600160a01b039091168152602090f35b503461012a57606036600319011261012a576108ee610f20565b6108f6610f36565b6040516323b872dd60e01b815233600482015230602482015260448035908201819052926001600160a01b03919082169060208160648189865af1801561098257610963575b5084526002602052604084209116835260205261095e604083209182546110dc565b905580f35b61097b9060203d6020116106d0576106c18183611003565b503861093c565b6040513d88823e3d90fd5b503461012a57604036600319011261012a576020906109aa610f8c565b50604051908152f35b503461012a578060031936011261012a576109cc61114b565b80546001600160a01b03198116825581906001600160a01b03167f8be0079c531659141344cd1fd0a4f28419497f9722a3daafe3b4186f6b6457e08280a380f35b503461012a578060031936011261012a576040517f00000000000000000000000000000000000000000000000000000000000000006001600160a01b03168152602090f35b503461012a5760c036600319011261012a57610a6c610ede565b610a74610ef4565b90610a7d610f0a565b9160a435916001600160401b0383116104e557610ae2610ab8610b4295610aaa6040963690600401610eac565b959094602435600435611024565b917f000000000000000000000000000000000000000000000000000000000000000093369161108d565b908560208551610af181610fcd565b8281520152610aff836110ff565b63ffffffff855194610b1086610fb2565b1684526020840152838301526060820152836080820152815180938192631bb8518b60e31b835230906004840161119f565b03817f00000000000000000000000000000000000000000000000000000000000000006001600160a01b03165afa9081156104f4578291610b8a575b60208251604051908152f35b905060403d604011610bc1575b610ba18183611003565b81019160408284031261012a5750602091610bbb91611177565b38610b7e565b503d610b97565b503461012a578060031936011261012a57602060405163ffffffff7f0000000000000000000000000000000000000000000000000000000000000000168152f35b503461012a57604036600319011261012a577f238399d427b947898edb290f5ff0f9109849b1c3ba196a42e35f00c50a54b98b610c44610f8c565b60243590610c5061114b565b63ffffffff16808452600160209081526040808620849055805192835290820192909252a180f35b503461012a5760a036600319011261012a57610cc8610cb4610c98610ede565b610ca0610ef4565b610ca8610f0a565b91602435600435611024565b604051918291602083526020830190610f4c565b0390f35b503461012a578060031936011261012a57604080516001815260016020820152f35b9050366003190160e081126104e957606013610ea8576001600160401b0390608435828111610ea457610d25903690600401610eac565b6001600160a01b03939192909160a43585811603610ea05760c435908111610ea057610d55903690600401610eac565b505033847f00000000000000000000000000000000000000000000000000000000000000001603610e8b5750610d91610d8c610f9f565b6110ff565b602435809103610e5b575081608091810103126104e957610db181611137565b91602090610dc0828401611137565b92816060610dd060408401611137565b60405163a9059cbb60e01b815290851660048201529201356024830181905295169083816044818a865af180156106d757610e3e575b50855260028252604085209216845252604082208054918203918211610e2a575580f35b634e487b7160e01b83526011600452602483fd5b610e5490843d86116106d0576106c18183611003565b5038610e06565b610e63610f9f565b60405163309afaf360e21b815263ffffffff9190911660048201526024810191909152604490fd5b6391ac5e4f60e01b8152336004820152602490fd5b8580fd5b8380fd5b5080fd5b9181601f84011215610ed9578235916001600160401b038311610ed95760208381860195010111610ed957565b600080fd5b604435906001600160a01b0382168203610ed957565b606435906001600160a01b0382168203610ed957565b608435906001600160a01b0382168203610ed957565b600435906001600160a01b0382168203610ed957565b602435906001600160a01b0382168203610ed957565b919082519283825260005b848110610f78575050826000602080949584010152601f8019910116010190565b602081830181015184830182015201610f57565b6004359063ffffffff82168203610ed957565b60043563ffffffff81168103610ed95790565b60a081019081106001600160401b0382111761072757604052565b604081019081106001600160401b0382111761072757604052565b606081019081106001600160401b0382111761072757604052565b90601f801991011681019081106001600160401b0382111761072757604052565b939190604051946020860152604085015260018060a01b03928380921660608601521660808401521660a082015260a0815260c081018181106001600160401b038211176107275760405290565b6001600160401b03811161072757601f01601f191660200190565b92919261109982611072565b916110a76040519384611003565b829481845281830111610ed9578281602093846000960137010152565b90816020910312610ed957518015158103610ed95790565b919082018092116110e957565b634e487b7160e01b600052601160045260246000fd5b63ffffffff1680600052600160205260406000205490811561111f575090565b6024906040519063f6ff4fb760e01b82526004820152fd5b35906001600160a01b0382168203610ed957565b6000546001600160a01b0316330361115f57565b60405163118cdaa760e01b8152336004820152602490fd5b9190826040910312610ed95760405161118f81610fcd565b6020808294805184520151910152565b906020909392936040835263ffffffff815116604084015281810151606084015260806111f36111dd604084015160a08488015260e0870190610f4c565b6060840151868203603f190160a0880152610f4c565b910151151560c08401526001600160a01b03909416910152565b90611234575080511561122257805190602001fd5b604051630a12f52160e11b8152600490fd5b81511580611267575b611245575090565b604051639996b31560e01b81526001600160a01b039091166004820152602490fd5b50803b1561123d56fea26469706673582212204c7ef4b305326e08ad1b56ee0e3ae4c6f024012411113061ed98381b8c768c9464736f6c63430008160033","linkReferences":{}},"methodIdentifiers":{"allowInitializePath((uint32,bytes32,uint64))":"ff7bd03d","balanceOf(address,address)":"f7888aec","composeMsgSender()":"b92d0eff","createPayload(uint256,uint256,address,address,address)":"2f43f97c","deposit(address,address,uint256)":"8340f549","depositFor(address,address,address,uint256,uint256,uint256,bytes)":"d570f5d4","destId()":"3cc50f22","endpoint()":"5e280f11","lzReceive((uint32,bytes32,uint64),bytes32,bytes,address,bytes)":"13137d65","nextNonce(uint32,bytes32)":"7d25a05e","oAppVersion()":"17442b70","owner()":"8da5cb5b","peers(uint32)":"bb0b6a53","processed(bytes32)":"c1f0808a","quote(uint256,uint256,address,address,address,bytes)":"45cd4432","renounceOwnership()":"715018a6","setDelegate(address)":"ca5eb5e1","setPeer(uint32,bytes32)":"3400288b","transferOwnership(address)":"f2fde38b"},"id":42}